:100000000C942A000C9447000C9447000C94470071
:100010000C9447000C9447000C9447000C94470044
:100020000C9447000C9447000C9447000C94470034
:100030000C9447000C9447000C9447000C94470024
:100040000C9447000C9447000C9447000C94470014
:100050000C94470011241FBECFE5D4E0DEBFCDBF16
:1000600011E0A0E6B0E0E2E7FAE002C005900D92F0
:10007000AE33B107D9F721E0AEE3B1E001C01D9284
:10008000A234B207E1F70E94B7010C9437050C9433
:100090000000EF92FF920F931F93CF93DF93C0E680
:1000A000D0E00EE311E00F2EF8E6EF2EF0E0FF2E89
:1000B000F02D8981813029F460E088810E946801F7
:1000C00004C06FEF88810E946801F80111928F01CE
:1000D0002296CE15DF0569F7DF91CF911F910F9121
:1000E000FF90EF900895EF92FF920F931F93CF939D
:1000F000DF931F92CDB7DEB77B01082F10E0F80128
:10010000EE0FFF1FE05AFF4FBE016F5F7F4F8081F0
:100110000E949101F801E25CFE4F8081813081F103
:1001200038F0823009F455C0833009F47BC0A4C094
:100130008981882391F0F801EE0FFF1FE05AFF4FED
:100140008181813029F4F801E25CFE4F808394C004
:10015000F801E25CFE4F10828FC0F801EE0FFF1F26
:10016000E05AFF4F8181813029F4F801E25CFE4FB3
:10017000108282C081E0F801E25CFE4F80837CC087
:100180008981882399F0F801EE0FFF1FE05AFF4F95
:100190008181813031F483E0F801E25CFE4F80839D
:1001A0006BC0F801E25CFE4F108266C0F801EE0FF2
:1001B000FF1FE05AFF4F8181813029F4F801E25C92
:1001C000FE4F108259C083E0F801E25CFE4F80834D
:1001D00053C08981882399F0F801EE0FFF1FE05A80
:1001E000FF4F8181813031F483E0F801E25CFE4F02
:1001F000808342C0F801E25CFE4F10823DC0F801EE
:10020000EE0FFF1FE05AFF4F8181813029F4F80182
:10021000E25CFE4F108230C083E0F801E25CFE4FEA
:1002200080832AC089818823A1F0F801EE0FFF1F87
:10023000E05AFF4F8181813031F483E0F801E25CC4
:10024000FE4F808319C082E0F801E25CFE4F80839C
:1002500013C0F801EE0FFF1FE05AFF4F818181307C
:1002600031F482E0F801E25CFE4F808305C083E058
:10027000F801E25CFE4F8083F801E25CFE4F808172
:10028000F70180830F90DF91CF911F910F91FF9025
:10029000EF900895A4E7B0E044ED50E0EC91E43035
:1002A000A8F4F0E0E459FF4FE081F0E0908111966E
:1002B0002C91119712968C9112978223892B80830F
:1002C0001396A417B50751F780E0089581E00895CB
:1002D000803218F590E0FC01EE0FFF1FE80FF91FC8
:1002E000EC58FF4F22812F3FD1F4FC01EE0FFF1F8E
:1002F0008E0F9F1FFC01EC58FF4FA081B0E0A0596A
:10030000BF4FAC91B0E08C919181292F2095822331
:100310006923682B6C9380E0089581E0089581E063
:100320000895803200F590E0FC01EE0FFF1FE80F0A
:10033000F91FEC58FF4F2281211117C0FC01EE0F6D
:10034000FF1F8E0F9F1FFC01EC58FF4FA081B0E0F4
:10035000A859BF4FAC91B0E08C9191818923FB01EA
:10036000808380E0089581E0089581E00895CF932F
:10037000DF93CDB7DEB72C970FB6F894DEBF0FBE74
:10038000CDBFFE01319688E0DF011D928A95E9F725
:100390000E944A010E9448030E944900712C612C6E
:1003A0000F2EF9E08F2E912CF02D0F2EF3E02F2E33
:1003B000312CF02D0F2EF5E04F2E512CF02D03C0D7
:1003C000612C01C0612C09811A8140E0602F80E01E
:1003D0000E94D503EB80FC8040E06E2D81E00E94FE
:1003E000D503AD80BE8040E06A2D82E00E94D50337
:1003F000CF80D88440E06C2D83E00E94D503BE01FD
:10040000675F7F4F80E00E9473008985833009F029
:10041000CAC0BFE728E381E0B15020408040E1F747
:1004200000C00000862D0E94B1049FE7A8E3B1E060
:100430009150A040B040E1F700C00000BE01665FEF
:100440007F4F81E00E947300BE01645F7F4F82E0B6
:100450000E947300BE01655F7F4F83E00E947300BE
:100460008C85813029F4639423E0261508F4F9C0C3
:100470008A85813009F04CC0E62DF0E0EE0FFF1FB9
:1004800081E090E08C0F9D1FE80FF91F8081918122
:10049000019691838083611009C089819A810A97AE
:1004A00009F08ECF1A821982612C8DCF91E06912EA
:1004B00008C08B819C81069709F085CF1C821B8226
:1004C00082CFA2E06A1210C08D819E818A30910590
:1004D00041F004970CF477CF8F81988502970CF444
:1004E00072CF1E821D826FCFB3E06B126CCF8F81F3
:1004F00098858330910549F02D813E812430310566
:100500000CF461CF02970CF45ECF18861F825BCF8C
:100510008B85813009F057CFE62DF0E0EE0FFF1FFD
:1005200081E090E08C0F9D1FE80FF91F8081918181
:10053000019791838083611009C089819A819923F1
:100540000CF040CF9A828982612C3DCF91E06912F4
:1005500008C08B819C81019609F035CF5C824B826B
:1005600032CFB2E06B120DC08D819E81019609F0F1
:100570002ACF8F81988502970CF482C03E822D820B
:1005800022CF83E068121FCF8F819885019609F0F2
:100590001ACF8D819E8104970CF475C081E090E0A4
:1005A00098878F8310CF81114CC09CE3791249C08A
:1005B000A2E0CA16D104A1F4B3E0AB16B10481F4F1
:1005C00025E0E216F10461F40930110551F51A82B3
:1005D00019821C821B821E821D8218861F8225C0E2
:1005E00009301105F1F48FEFE81AF80AFC82EB826A
:1005F0001A82198296E0E916F104B9F4AFEFAA1A4B
:10060000BA0ABE82AD821C821B82BAE0AB16B1046C
:1006100061F42FEFC21AD20AD886CF821E821D82C1
:1006200004C00F5F1F4F1A8309838FEF94E3ACE080
:1006300081509040A040E1F700C0000077247394FF
:10064000C2CEBFEF24E38CE0B15020408040E1F700
:1006500000C000007394B7CE0F5F1F4F1A83098349
:100660001CCF8A85813039F4F7CF89819A8101972F
:100670009A83898362CF8B858130B9F3612CA3CEB5
:100680009E828D82A0CEA2E0B0E0B887AF839BCEE1
:100690006F927F928F929F92AF92BF92CF92DF9292
:1006A000EF92FF920F931F93CF93DF93CAE1D1E0B4
:1006B0000F2EFCE1EF2EF1E0FF2EF02D0F2EFEE3CA
:1006C0006F2EF1E07F2EF02DCC24C394D12C0F2E71
:1006D000FBEDAF2EF0E0BF2EF02D8881813001F5CB
:1006E0008981813079F404ED10E04701F8016191CE
:1006F0008F01F40181914F010E946801A016B1069B
:10070000A9F73CC087016894992492F860E0F80149
:1007100081918F010E9468019A949110F7CF2EC0A9
:1007200089818130A1F40F2EF4ED8F2EF0E09F2E01
:10073000F02D8701F40161914F016095F8018191DD
:100740008F010E9468018A149B04A1F717C08701DA
:10075000812C912CB601082C02C0660F771F0A94D9
:10076000E2F76F70F80181918F010E946801FFEF3D
:100770008F1A9F0A84E08816910461F72996E9E0B0
:10078000EE0EF11CC615D70509F0A7CFDF91CF916A
:100790001F910F91FF90EF90DF90CF90BF90AF909F
:1007A0009F908F907F906F900895CF92DF92EF92FD
:1007B000FF920F931F93CF93DF93843008F0C5C04F
:1007C0006A3008F0C4C0162F282F30E0F901EE0F70
:1007D000FF1FEE0FFF1FEE0FFF1FE20FF31FE65E7E
:1007E000FE4F9081913009F057C0F901EE0FFF1FC5
:1007F000EE0FFF1FEE0FFF1F2E0F3F1FF901E65EEA
:10080000FE4F9181913011F527E0629FB0011124D4
:10081000FB01EC52FF4F7F0190E08C01000F111F94
:10082000000F111F000F111F800F911F8C01045E1C
:100830001E4FC7E0F70161917F01F80181918F019F
:100840000E946801C150B1F780E082C090E07C0155
:10085000EE0CFF1CEE0CFF1CEE0CFF1C8E0D9F1D02
:100860009C01245E3E4F7901C0E0D0E0CC24C394CB
:10087000D12CB6010C2E02C0660F771F0A94E2F746
:100880006123F70181917F010E9468012196C430A4
:10089000D10579F780E05CC0F901EE0FFF1FEE0F84
:1008A000FF1FEE0FFF1F2E0F3F1FF901E65EFE4FE9
:1008B0009181913019F5F7E06F9FB00111249B01F0
:1008C0002C523F4F790190E08C01000F111F000F57
:1008D000111F000F111F800F911F8C01045E1E4F0E
:1008E000C7E0F70161917F016095F80181918F0167
:1008F0000E946801C150A9F780E02AC090E0EC0195
:10090000CC0FDD1FCC0FDD1FCC0FDD1F8C0F9D1F0B
:10091000EC01C45EDE4FC12CD12CEE24E394F12C0B
:10092000B7010C2C02C0660F771F0A94E2F761230F
:10093000609589910E946801FFEFCF1ADF0A24E0D9
:10094000C216D10469F780E003C081E001C081E0F4
:10095000DF91CF911F910F91FF90EF90DF90CF909B
:1009600008951F93CF93DF93843008F07BC0282F26
:1009700030E0F901EE0FFF1FEE0FFF1FEE0FFF1F1C
:10098000E20FF31FE65EFE4F9081913089F5F90189
:10099000EE0FFF1FEE0FFF1FEE0FFF1F2E0F3F1F6B
:1009A000F901E65EFE4F9181913061F4E901C45E88
:1009B000DE4F17E060E089910E9468011150D1F785
:1009C00080E051C090E0EC01CC0FDD1FCC0FDD1FAB
:1009D000CC0FDD1F8C0F9D1FEC01C45EDE4F14E0B9
:1009E0006FEF89910E9468011150D1F780E03BC000
:1009F000F901EE0FFF1FEE0FFF1FEE0FFF1F2E0F6F
:100A00003F1FF901E65EFE4F91819130B1F490E015
:100A1000EC01CC0FDD1FCC0FDD1FCC0FDD1F8C0FC9
:100A20009D1FEC01C45EDE4F17E06FEF89910E94BD
:100A300068011150D1F780E016C090E0EC01CC0FB6
:100A4000DD1FCC0FDD1FCC0FDD1FC80FD91FC45E0B
:100A5000DE4F14E060E089910E9468011150D1F7E7
:100A600080E001C081E0DF91CF911F910895F8945B
:020A7000FFCFB6
:100A72001C011D011E011F01393633303A37343152
:100A82003B3835320301FF0302FF0304FF0308FF73
:100A92000310FF0320FF0340FF0201FF0202FF02D7
:100AA20004FF0208FF0210FF0220FF0240FF0101C3
:100AB200FF0102FF0104FF0108FF0110FF0120FFF7
:100AC2000140FF0001FF0002FF0004FF0008FF00D9
:100AD20010FF0020FF0040FF008000018000028024
:100AE20000038000FFFFFFFFFFFF0000FFFF000089
:100AF2000000FFFF00FFFF00FFFFFFFFFF0000FFFE
:100B020000FFFF0000FFFFFF00FFFF00FFFFFF00ED
:100B1200FFFFFFFFFFFFFFFF00000000FFFFFFFFDF
:100B2200FFFFFFFFFFFFFF00FFFF010103020106BE
:100B3200050400010111100F1413120E01010A0B1A
:0E0B42000C0708090D01011817161B1A1915CA
:00000001FF
